:100000000C9463000C948B000C948B000C948B006C
:100010000C948B000C948B000C948B000C94B50604
:100020000C948B000C948B000C948B000C948B0024
:100030000C948B000C948B000C948B000C948B0014
:100040000C946B060C948B000C9435070C940F07E2
:100050000C948B000C948B000C948B000C948B00F4
:100060000C948B000C948B000200000000230026EF
:1000700000290000000000240027002A00000000E2
:1000800000250028002B00040404040404040402D6
:100090000202020202030303030303010204081025
:1000A00020408001020408102001020408102000F2
:1000B0000000080002010000030407000000000027
:1000C00000000000670711241FBECFEFD8E0DEBF9D
:1000D000CDBF11E0A0E0B1E0EEE4F3E102C0059095
:1000E0000D92A434B107D9F722E0A4E4B1E001C035
:1000F0001D92AA30B207E1F710E0C3E6D0E004C0D9
:100100002197FE010E949F09C236D107C9F70E94BC
:100110009E070C94A5090C9400008CBD9DBD08950C
:10012000833081F028F4813099F08230A9F008956D
:100130008730A9F08830C9F08430B1F48091800014
:100140008F7D03C0809180008F7780938000089519
:1001500084B58F7784BD089584B58F7DFBCF809162
:10016000B0008F778093B00008958091B0008F7DAC
:10017000F9CF1F93CF93DF93282F30E0F901E1559A
:10018000FF4F8491F901E556FF4FD491F901E957EA
:10019000FF4FC491CC23A9F0162F81110E9490002B
:1001A000EC2FF0E0EE0FFF1FE358FF4FA591B49145
:1001B0008FB7F894EC91111108C0D095DE23DC9331
:1001C0008FBFDF91CF911F910895DE2BF8CFCF9392
:1001D000DF9390E0FC01E556FF4F249189579F4F34
:1001E000FC0184918823D1F090E0880F991FFC01D5
:1001F000ED58FF4FA591B491FC01E358FF4FC59115
:10020000D49161110EC09FB7F8948C91E22FE095C4
:100210008E238C932881E223E8839FBFDF91CF91C7
:1002200008958FB7F894EC91E22BEC938FBFF6CF43
:100230003FB7F8948091550190915601A0915701D4
:10024000B091580126B5A89B05C02F3F19F0019623
:10025000A11DB11D3FBFBA2FA92F982F8827BC0120
:10026000CD01620F711D811D911D42E0660F771F48
:10027000881F991F4A95D1F708958F929F92AF9248
:10028000BF92CF92DF92EF92FF924B015C010E94EE
:1002900018016B017C010E9418016C197D098E09FF
:1002A0009F09683E734081059105A8F321E0821AF9
:1002B0009108A108B10888EEC80E83E0D81EE11CA1
:1002C000F11C81149104A104B10429F7FF90EF906F
:1002D000DF90CF90BF90AF909F908F9008959091B6
:1002E000000189130BC0E8E6F0E0E4919FEF9093E2
:1002F0000001E13049F028F0E23061F060E00C9458
:10030000B90010926E00FACF90916F009D7F90938C
:100310006F00F4CF909170009D7F9093700091E0FA
:100320009093B0009091B100987F94609093B10049
:100330001092B300E3CFAF92BF92CF92DF92EF92D1
:10034000FF920F931F93CF93DF936C017B018B017F
:10035000040F151FEB015E01AE18BF08C017D107CF
:1003600059F06991D601ED91FC910190F081E02D59
:10037000C6010995892B79F7C501DF91CF911F91AE
:100380000F91FF90EF90DF90CF90BF90AF900895C6
:10039000FC01538D448D252F30E0842F90E0821B8B
:1003A000930B541710F0CF96089501970895FC0110
:1003B000918D828D981761F0A28DAE0FBF2FB11D68
:1003C0005D968C91928D9F5F9F73928F90E00895C0
:1003D0008FEF9FEF0895FC01918D828D981731F07A
:1003E000828DE80FF11D858D90E008958FEF9FEFCE
:1003F0000895FC01918D228D892F90E0805C9F4FA4
:10040000821B91098F73992708958DE591E00E94D1
:10041000F90121E0892B09F420E0822F089580E082
:1004200090E0892B29F00E94050281110C940000B4
:100430000895FC01A48DA80FB92FB11DA35ABF4F79
:100440002C91848D90E001968F739927848FA689D3
:10045000B7892C93A089B1898C91837080648C9327
:10046000938D848D981306C00288F389E02D8081D6
:100470008F7D80830895EF92FF920F931F93CF9308
:10048000DF93EC0181E0888F9B8D8C8D98131AC0CF
:10049000E889F989808185FF15C09FB7F894EE89B6
:1004A000FF896083E889F989808183708064808313
:1004B0009FBF81E090E0DF91CF911F910F91FF905E
:1004C000EF900895F62E0B8D10E00F5F1F4F0F7306
:1004D0001127E02E8C8D8E110CC00FB607FCFACFC1
:1004E000E889F989808185FFF5CFCE010E94190244
:1004F000F1CFEB8DEC0FFD2FF11DE35AFF4FF08292
:100500009FB7F8940B8FEA89FB8980818062CFCFF7
:10051000CF93DF93EC01888D8823B9F0AA89BB893A
:10052000E889F9898C9185FD03C0808186FD0DC025
:100530000FB607FCF7CF8C9185FFF2CF808185FF46
:10054000EDCFCE010E941902E9CFDF91CF9108953E
:10055000BC016E5F7F4FDC01ED91FC910190F08159
:10056000E02D40E0099591E0811190E0892F0895F8
:1005700008958EBD00000DB407FEFDCF8EB5089521
:10058000DF92EF92FF920F931F93CF93DF937C0143
:10059000062FD42E152F80E590E00E948D0060E09C
:1005A000F70186850E94B90082E10E94B902CD2D33
:1005B000D12F0C0F1D2F111DC017D10721F08991CC
:1005C0000E94B902F9CF61E0F7018685DF91CF91F2
:1005D0001F910F91FF90EF90DF900C94B9001F9343
:1005E000CF93DF93EC01162F80E590E00E948D0001
:1005F00060E08E850E94B900812F80680E94B90258
:1006000080E00E94B902182F61E08E850E94B90037
:10061000812FDF91CF911F9108950F931F93CF9357
:10062000DF93EC01062F142F80E590E00E948D00EF
:1006300060E08E850E94B900802F0E94B902812F50
:100640000E94B90261E08E85DF91CF911F910F91D9
:100650000C94B900CF92DF92EF92FF920F931F9309
:10066000CF93DF93EC016B01F42E890140E062E04F
:100670000E940D0344E06AE0CE010E940D0340E8B1
:1006800064E1CE010E940D03A6016F2DCE010E94F0
:10069000C00243E062E0CE010E940D038FB7F894E0
:1006A000C0905901D0905A01E0905B01F0905C013C
:1006B0008FBF89E5C80ED11CE11CF11C6AE0CE0198
:1006C0000E94EF0282FF1BC040E062E0CE010E9468
:1006D0000D0364E4CE010E94EF02F801808362E41E
:1006E000CE010E94EF02F801818380E0DF91CF917B
:1006F0001F910F91FF90EF90DF90CF9008952FB74B
:10070000F8948091590190915A01A0915B01B091A8
:100710005C012FBF8C159D05AE05BF0578F283E007
:10072000E5CFFC0101900020E9F73197AF01481BAC
:10073000590BBC018DE591E00C949B014F925F92A7
:100740006F927F928F929F92AF92BF92CF92EF92D1
:10075000FF920F931F93CF93DF93EC014B01642E15
:10076000590180E0E114F10411F0F70180817C2C43
:10077000729490EF7922780E40E062E0CE010E9400
:100780000D034FE768E0CE010E940D0340E864E1ED
:10079000CE010E940D03A401662DCE010E94C0026D
:1007A000472D6AE1CE010E940D034CE062E0CE01CC
:1007B0000E940D036AE1CE010E94EF02482F4068BB
:1007C0006AE1CE010E940D038FB7F8944090590161
:1007D00050905A0160905B0170905C018FBFF4E211
:1007E0004F0E511C611C711C68E0CE010E94EF028B
:1007F000982F907309F080C080FF11C083E0DF91D3
:10080000CF911F910F91FF90EF90CF90BF90AF903D
:100810009F908F907F906F905F904F9008952FB72B
:10082000F8948091590190915A01A0915B01B09187
:100830005C012FBF84159505A605B705A8F2DECF8C
:10084000A114B10409F451C00115110509F44DC0FA
:1008500064E1CE010E94EF02982EF8018081891593
:1008600008F448C090829920B1F180E590E00E94A0
:100870008D0060E08E850E94B9009A9482E90E9402
:10088000B902CC2099F00FEF10E001C0000FCA941C
:10089000EAF782E90E94B902902F9095F501208134
:1008A00092238023982B9083CC24C394AC0CB11C4E
:1008B000C91440F482E90E94B902F50181935F01F5
:1008C000C394F6CF80E00E94B902F501808361E015
:1008D0008E850E94B90068E1CE010E94EF02E1140A
:1008E000F10419F08770F701808382E083FC87CFE1
:1008F00080E085CF84E083CF6CE0CE010E94EF02E0
:10090000882E837109F49CCF81E079CFAF92BF929A
:10091000CF92EF92FF920F931F93CF93DF9300D06C
:1009200000D01F92CDB7DEB75C0182E08D8340E03E
:1009300064E2C5010E940D0340E066E2C5010E9429
:100940000D0346E268E4C5010E940D0386E28B8335
:100950008D818230C8F16CE1C5010E94EF02482F01
:100960004F776CE1C5010E940D0387E08C83C12C99
:10097000CE0104967C018E010B5F1F4F9E012F5FFD
:100980003F4F41E0BE016D5F7F4FC5010E949E0356
:10099000982F811116C08D818230B1F48C81811124
:1009A00013C081E00F900F900F900F900F90DF9188
:1009B000CF911F910F91FF90EF90CF90BF90AF908C
:1009C000089581E0923071F380E0ECCF2F923F9256
:1009D0004F925F926F927F928F929F92AF92BF924F
:1009E000CF92DF92EF92FF920F931F93CF93DF93FB
:1009F000CDB7DEB72C970FB6F894DEBF0FBECDBFD4
:100A000016E0413508F049C1342E4B015C016CE120
:100A10000E94EF02482F4F776CE1C5010E940D0341
:100A200083E98983332029F081E0F40190819530B6
:100A300008F480E044244394512C952D990F990F8C
:100A4000990FD32CD91AD7FCD12C32E0882319F076
:100A500098E89B8333E021E09D2D977009F420E016
:100A60009D2D959595959595290FC9F094E0811147
:100A700093E0291708F4922FE52DF0E03196E80D68
:100A8000F91D232F4191A1E0B0E0AC0FBD1FA20FD3
:100A9000B11D4C932F5F422F431B491798F38823B6
:100AA00011F0F8E0DF0E8FE18D150CF081C090E7BA
:100AB0009A838B819C8189279D8189279E818927A3
:100AC0008F839E01285F3F4F47E0BE016F5F7F4FDE
:100AD000C5010E942A03182F8111DFC01A86E3E0A6
:100AE000EB87DC86CE0107963C0129E0222ECA84E2
:100AF0004C2D4295407F4C0D6AE1C5010E940D03CB
:100B0000FE013A967F018E01055F1F4F9301422D32
:100B1000BE016F5F7F4FC5010E949E03182F823078
:100B200009F065C06CE1C5010E94EF0285FDB5C00A
:100B30008F7109F480E2282F30E04D2DDD0C550B2C
:100B4000421753070CF09DC0D82EE82FE595E59588
:100B5000E595EF5F982F977081E009F480E0E80F4A
:100B600081E090E08C0F9D1F8E0F911DFC012150A4
:100B700031092770332781E090E002C0880F991F68
:100B80002A95E2F79C018081822B80838CCF85E9B6
:100B90008983332031F081E0F4019081983008F0AE
:100BA0004CCF80E04ACF87E9898336E0532EF9CFD6
:100BB0009D2D97709A878D2D8595859585958E5F4E
:100BC000282F2295207F290F2A8321E0911101C02F
:100BD00020E0222E280E66246394712C6C0E7D1E5C
:100BE000680E711C99E0981B9B87DC8680CF811171
:100BF00054C080E2D82E9C8590320CF458CF8B8163
:100C0000883809F040C083E093E0E52DF0E03196AC
:100C1000E80DF91D980FA1E0B0E0AC0FBD1FA80FC3
:100C2000B11D2C9121938F5F8913F5CF5B84E3E095
:100C30005E124DC08A8581114AC09E012D5F3F4FD3
:100C400041E0B301C5010E942A03182F811125C07C
:100C50009B81F301818198133CC09C818281981310
:100C600038C0808182FF12C04394F2E04F1609F42D
:100C70008ECF83E0481609F496CF91E0491609F427
:100C8000CFCE15E00AC082E094E0BFCFF4018387A5
:100C9000842D880F480E43944082812F2C960FB6E6
:100CA000F894DEBF0FBECDBFDF91CF911F910F91A2
:100CB000FF90EF90DF90CF90BF90AF909F908F907C
:100CC0007F906F905F904F903F902F90089511E02C
:100CD000E4CF17E0E2CF1F920F920FB60F921124CC
:100CE0002F933F938F939F93AF93BF93809159011D
:100CF00090915A01A0915B01B0915C013091540137
:100D000023E0230F2D3758F50196A11DB11D209327
:100D100054018093590190935A01A0935B01B093C1
:100D20005C018091550190915601A0915701B091BD
:100D300058010196A11DB11D809355019093560154
:100D4000A0935701B0935801BF91AF919F918F919C
:100D50003F912F910F900FBE0F901F90189526E88E
:100D6000230F0296A11DB11DD2CF1F920F920FB675
:100D70000F9211242F933F934F935F936F937F9321
:100D80008F939F93AF93BF93EF93FF9380914F0106
:100D900090915001A0915101B0915201892B8A2B61
:100DA0008B2BC1F190914E01809100008927809397
:100DB000000080914F0190915001A0915101B0919C
:100DC0005201181619061A061B069CF480914F0151
:100DD00090915001A0915101B09152010197A10948
:100DE000B10980934F0190935001A0935101B093AA
:100DF0005201FF91EF91BF91AF919F918F917F91A0
:100E00006F915F914F913F912F910F900FBE0F9077
:100E10001F901895809100010E946F01EACF1F92E8
:100E20000F920FB60F9211242F933F934F935F931E
:100E30006F937F938F939F93AF93BF93EF93FF93A2
:100E40008DE591E00E941902FF91EF91BF91AF9162
:100E50009F918F917F916F915F914F913F912F91D2
:100E60000F900FBE0F901F9018951F920F920FB604
:100E70000F9211242F938F939F93EF93FF93E09101
:100E80006D01F0916E018081E0917301F091740128
:100E900082FD1BC09081809176018F5F8F732091BE
:100EA0007701821741F0E0917601F0E0E35AFE4FBE
:100EB000958F80937601FF91EF919F918F912F9164
:100EC0000F900FBE0F901F9018958081F4CFEDE525
:100ED000F1E01382128288EE93E0A0E0B0E0848318
:100EE0009583A683B78385E091E09183808385EC29
:100EF00090E09587848784EC90E09787868780ECE4
:100F000090E0918B808B81EC90E0938B828B82ECD4
:100F100090E0958B848B86EC90E0978B868B118E7E
:100F2000128E138E148EEAEFF1E087E191E0918347
:100F300080838AE0868789E087870895CF93DF934F
:100F4000CDB7DEB7A1970FB6F894DEBF0FBECDBF09
:100F5000789484B5826084BD84B5816084BD85B594
:100F6000826085BD85B5816085BD80916E008160A0
:100F700080936E0010928100809181008260809346
:100F80008100809181008160809381008091800048
:100F90008160809380008091B10084608093B10073
:100FA0008091B00081608093B00080917A0084606D
:100FB00080937A0080917A00826080937A00809199
:100FC0007A00816080937A0080917A0080688093B3
:100FD0007A001092C100E0916D01F0916E0182E003
:100FE0008083E0916901F0916A011082E0916B01C8
:100FF000F0916C018FEC808310927501E09171018A
:10100000F091720186E08083E0916F01F0917001B0
:10101000808180618083E0916F01F0917001808117
:1010200088608083E0916F01F09170018081806819
:101030008083E0916F01F091700180818F7D8083CA
:1010400061E083E00E94E70061E084E00E94E70045
:1010500061E087E00E94E70060E083E00E94B90061
:1010600060E084E00E94B90087E00E946F011FB732
:10107000F89480915301811127C0E1E9F0E0849157
:10108000E5EAF0E09491E82FF0E0EE0FFF1FED5855
:10109000FF4FA591B491EC91E92321F461E08AE03E
:1010A0000E94B90061E08AE00E94E7008CB580618F
:1010B0008CBD8CB580648CBD61E08DE00E94E70042
:1010C00061E08BE00E94E700809153018F5F809385
:1010D00053011FBF61E0809108020E94E70061E0B8
:1010E000809108020E94B900809109028F3F09F4A3
:1010F000DFC060E00E94E7002091090230E0F901C2
:10110000E155FF4F8491F901E556FF4F0491F90134
:10111000E957FF4F14911111BCC061E080910902A1
:101120000E94E70060E0809109020E94B90083E01C
:1011300090E00197F1F761E0809109020E94B90007
:1011400062E370E080E090E00E943D0140E064E2F4
:101150008AEF91E00E940D0340E066E28AEF91E0A1
:101160000E940D0346E268E48AEF91E00E940D03BD
:1011700040E864E58AEF91E00E940D0349EA66E5E4
:101180008AEF91E00E940D0343E068E58AEF91E069
:101190000E940D0348EE6AE58AEF91E00E940D037C
:1011A00040E46AE28AEF91E00E940D034DE362E2BF
:1011B0008AEF91E00E940D0368E28AEF91E00E94BD
:1011C000EF02982F9370933039F0482F436068E214
:1011D0008AEF91E00E940D036EEE72E080E090E0F5
:1011E0000E943D018DE191E00E9491038BE391E02B
:1011F0000E94910320E0A22E20E0B22E30E5D32EF3
:101200008AEF91E00E948604882309F48CC08AEF5B
:1012100091E00E94A802882309F485C08EE391E042
:101220000E9491030AEF11E02091FC01C8018A5F3E
:1012300091402817190609F00CF453C0F8014381B6
:1012400050E070E060E019A2FE01B196DB01CA0136
:101250008F709927AA27BB2794E0769567955795B5
:1012600047959A95D1F78A300CF039C0805D82930A
:10127000411551056105710549F7309719F0CF0106
:101280000E94910382E491E00E9491030F5F1F4F3F
:10129000CBCF81110E949000E12FF0E0EE0FFF1FF5
:1012A000E759FF4FA591B491EC910E2309F435CF86
:1012B0004FE062E08AEF91E00E940D0313E062E3E9
:1012C00070E080E090E00E943D0162E08AEF91E0F2
:1012D0000E94EF0284FF3ACF115089F737CF895C23
:1012E000C6CF8BE391E00E949103D9821A829E01BE
:1012F0002D5F3F4F42E0BE016F5F7F4F8AEF91E06D
:101300000E942A0381110FC0C12CF12CE12C10E0A6
:1013100000E030E020E044E0BE016F5F7F4F8AEFE5
:1013200091E00E949E03A114B10409F469CF0E94C8
:101330000502882309F464CF0E94000061CFEE0FFC
:0E134000FF1F0590F491E02D0994F894FFCF63
:10134E00FF000000003B029B01C8018802F901D793
:10135E0001EB0100000000E6048604A802706C6533
:10136E00617365207363616E20796F7572205246CA
:10137E00494420436172642E2E2E000D0A005549F9
:04138E00443A2000BD
:00000001FF
