:100000000C9463000C948B000C948B000C948B006C
:100010000C948B000C948B000C948B000C94EC06CD
:100020000C948B000C948B000C948B000C948B0024
:100030000C948B000C948B000C948B000C948B0014
:100040000C94A2060C948B000C946C070C9446073D
:100050000C948B000C948B000C948B000C948B00F4
:100060000C948B000C948B000200000000240027ED
:10007000002A0000000000250028002B00000000DE
:1000800000230026002900040404040404040402DC
:100090000202020202030303030303010204081025
:1000A00020408001020408102001020408102000F2
:1000B0000000080002010000030407000000000027
:1000C000000000009E0711241FBECFEFD8E0DEBF66
:1000D000CDBF11E0A0E0B1E0E4E4F4E102C005909E
:1000E0000D92A23DB107D9F722E0A2EDB1E001C027
:1000F0001D92AC39B207E1F710E0C3E6D0E004C0CE
:100100002197FE010E941A0AC236D107C9F70E9440
:10011000D5070C94200A0C9400008CBD9DBD089559
:10012000833081F028F4813099F08230A9F008956D
:100130008730A9F08830C9F08430B1F48091800014
:100140008F7D03C0809180008F7780938000089519
:1001500084B58F7784BD089584B58F7DFBCF809162
:10016000B0008F778093B00008958091B0008F7DAC
:10017000F9CFCF93DF93282F30E0F901E155FF4FFE
:100180008491F901E556FF4FD491F901E957FF4FEA
:10019000C491CC23A1F081110E949000EC2FF0E0DB
:1001A000EE0FFF1FE358FF4FA591B491EC91ED23A3
:1001B00081E090E009F480E0DF91CF91089580E044
:1001C00090E0FACF1F93CF93DF93282F30E0F9010F
:1001D000E155FF4F8491F901E556FF4FD491F901A4
:1001E000E957FF4FC491CC23A9F0162F81110E942B
:1001F0009000EC2FF0E0EE0FFF1FED58FF4FA591A0
:10020000B4918FB7F894EC91111108C0D095DE230A
:10021000DC938FBFDF91CF911F910895DE2BF8CF34
:10022000CF93DF9390E0FC01E556FF4F249189576F
:100230009F4FFC0184918823D1F090E0880F991F93
:10024000FC01E759FF4FA591B491FC01ED58FF4F18
:10025000C591D49161110EC09FB7F8948C91E22F93
:10026000E0958E238C932881E223E8839FBFDF9162
:10027000CF9108958FB7F894EC91E22BEC938FBF58
:10028000F6CF3FB7F8948091E7019091E801A091F3
:10029000E901B091EA0126B5A89B05C02F3F19F0EE
:1002A0000196A11DB11D3FBFBA2FA92F982F8827F6
:1002B000BC01CD01620F711D811D911D42E0660FD1
:1002C000771F881F991F4A95D1F708958F929F92A3
:1002D000AF92BF92CF92DF92EF92FF924B015C01FF
:1002E0000E9441016B017C010E9441016C197D0952
:1002F0008E099F09683E734081059105A8F321E0AE
:10030000821A9108A108B10888EEC80E83E0D81EB1
:10031000E11CF11C81149104A104B10429F7FF90A0
:10032000EF90DF90CF90BF90AF909F908F90089507
:100330009091000189130BC0E8E6F0E0E4919FEF93
:1003400090930001E13049F028F0E23061F060E084
:100350000C94E20010926E00FACF90916F009D7F96
:1003600090936F00F4CF909170009D7F90937000F8
:1003700091E09093B0009091B100987F9460909339
:10038000B1001092B300E3CFAF92BF92CF92DF9251
:10039000EF92FF920F931F93CF93DF936C017B013A
:1003A0008B01040F151FEB015E01AE18BF08C017CB
:1003B000D10759F06991D601ED91FC910190F0813E
:1003C000E02DC6010995892B79F7C501DF91CF9101
:1003D0001F910F91FF90EF90DF90CF90BF90AF9063
:1003E0000895FC01538D448D252F30E0842F90E03B
:1003F000821B930B541710F0CF9608950197089520
:10040000FC01918D828D981761F0A28DAE0FBF2FE8
:10041000B11D5D968C91928D9F5F9F73928F90E03E
:1004200008958FEF9FEF0895FC01918D828D9817AD
:1004300031F0828DE80FF11D858D90E008958FEFEA
:100440009FEF0895FC01918D228D892F90E0805CB3
:100450009F4F821B91098F73992708958FEE91E02A
:100460000E94220221E0892B09F420E0822F0895C6
:1004700080E090E0892B29F00E942E0281110C94DB
:1004800000000895FC01A48DA80FB92FB11DA35A37
:10049000BF4F2C91848D90E001968F739927848FA4
:1004A000A689B7892C93A089B1898C9183708064C7
:1004B0008C93938D848D981306C00288F389E02D68
:1004C00080818F7D80830895EF92FF920F931F9319
:1004D000CF93DF93EC0181E0888F9B8D8C8D9813F7
:1004E0001AC0E889F989808185FF15C09FB7F89403
:1004F000EE89FF896083E889F9898081837080644F
:1005000080839FBF81E090E0DF91CF911F910F9199
:10051000FF90EF900895F62E0B8D10E00F5F1F4FA8
:100520000F731127E02E8C8D8E110CC00FB607FCB7
:10053000FACFE889F989808185FFF5CFCE010E9445
:100540004202F1CFEB8DEC0FFD2FF11DE35AFF4F6F
:10055000F0829FB7F8940B8FEA89FB8980818062D3
:10056000CFCFCF93DF93EC01888D8823B9F0AA8990
:10057000BB89E889F9898C9185FD03C0808186FD5E
:100580000DC00FB607FCF7CF8C9185FFF2CF8081AD
:1005900085FFEDCFCE010E944202E9CFDF91CF91DE
:1005A0000895BC016E5F7F4FDC01ED91FC910190DD
:1005B000F081E02D40E0099591E0811190E0892FD4
:1005C000089508958EBD00000DB407FEFDCF8EB5D1
:1005D0000895DF92EF92FF920F931F93CF93DF93D3
:1005E0007C01062FD42E152F80E590E00E948D000F
:1005F00060E0F70186850E94E20082E10E94E2024B
:10060000CD2DD12F0C0F1D2F111DC017D10721F09B
:1006100089910E94E202F9CF61E0F7018685DF91BE
:10062000CF911F910F91FF90EF90DF900C94E2001B
:100630001F93CF93DF93EC01162F80E590E00E948B
:100640008D0060E08E850E94E200812F80680E940C
:10065000E20280E00E94E202182F61E08E850E9493
:10066000E200812FDF91CF911F9108950F931F9387
:10067000CF93DF93EC01062F142F80E590E00E94CA
:100680008D0060E08E850E94E200802F0E94E202D1
:10069000812F0E94E20261E08E85DF91CF911F9150
:1006A0000F910C94E200CF92DF92EF92FF920F93A2
:1006B0001F93CF93DF93EC016B01F42E890140E08F
:1006C00062E00E94360344E06AE0CE010E943603F5
:1006D00040E864E1CE010E943603A6016F2DCE01F1
:1006E0000E94E90243E062E0CE010E9436038FB728
:1006F000F894C090EB01D090EC01E090ED01F09007
:10070000EE018FBF89E5C80ED11CE11CF11C6AE027
:10071000CE010E94180382FF1BC040E062E0CE01C0
:100720000E94360364E4CE010E941803F80180831E
:1007300062E4CE010E941803F801818380E0DF911A
:10074000CF911F910F91FF90EF90DF90CF90089580
:100750002FB7F8948091EB019091EC01A091ED01FD
:10076000B091EE012FBF8C159D05AE05BF0578F247
:1007700083E0E5CFFC0101900020E9F73197AF015C
:10078000481B590BBC018FEE91E00C94C401CF9330
:10079000DF930E94BA03EC0185E291E00E94BA0364
:1007A0008C0F9D1FDF91CF9108954F925F926F92B2
:1007B0007F928F929F92AF92BF92CF92EF92FF92D1
:1007C0000F931F93CF93DF93EC014B01642E5901DC
:1007D00080E0E114F10411F0F70180817C2C729427
:1007E00090EF7922780E40E062E0CE010E9436035D
:1007F0004FE768E0CE010E94360340E864E1CE0195
:100800000E943603A401662DCE010E94E902472D05
:100810006AE1CE010E9436034CE062E0CE010E9404
:1008200036036AE1CE010E941803482F40686AE14E
:10083000CE010E9436038FB7F8944090EB015090A0
:10084000EC016090ED017090EE018FBFF4E24F0E6D
:10085000511C611C711C68E0CE010E941803982F86
:10086000907309F080C080FF11C083E0DF91CF91C9
:100870001F910F91FF90EF90CF90BF90AF909F90FE
:100880008F907F906F905F904F9008952FB7F8945E
:100890008091EB019091EC01A091ED01B091EE01FE
:1008A0002FBF84159505A605B705A8F2DECFA114C4
:1008B000B10409F451C00115110509F44DC064E1FA
:1008C000CE010E941803982EF8018081891508F442
:1008D00048C090829920B1F180E590E00E948D009F
:1008E00060E08E850E94E2009A9482E90E94E20212
:1008F000CC2099F00FEF10E001C0000FCA94EAF786
:1009000082E90E94E202902F9095F50120819223C6
:100910008023982B9083CC24C394AC0CB11CC914B5
:1009200040F482E90E94E202F50181935F01C394E1
:10093000F6CF80E00E94E202F501808361E08E85BF
:100940000E94E20068E1CE010E941803E114F10464
:1009500019F08770F701808382E083FC87CF80E005
:1009600085CF84E083CF6CE0CE010E941803882EEF
:10097000837109F49CCF81E079CFAF92BF92CF927F
:10098000EF92FF920F931F93CF93DF9300D000D08D
:100990001F92CDB7DEB75C0182E08D8340E064E258
:1009A000C5010E94360340E066E2C5010E9436039D
:1009B00046E268E4C5010E94360386E28B838D819E
:1009C0008230C8F16CE1C5010E941803482F4F77AF
:1009D0006CE1C5010E94360387E08C83C12CCE01F7
:1009E00004967C018E010B5F1F4F9E012F5F3F4FCE
:1009F00041E0BE016D5F7F4FC5010E94D503982F76
:100A0000811116C08D818230B1F48C81811113C0A7
:100A100081E00F900F900F900F900F90DF91CF918A
:100A20001F910F91FF90EF90CF90BF90AF900895DE
:100A300081E0923071F380E0ECCF2F923F924F92A1
:100A40005F926F927F928F929F92AF92BF92CF925E
:100A5000DF92EF92FF920F931F93CF93DF93CDB767
:100A6000DEB72C970FB6F894DEBF0FBECDBF16E0F1
:100A7000413508F049C1342E4B015C016CE10E9404
:100A80001803482F4F776CE1C5010E94360383E9B4
:100A90008983332029F081E0F4019081953008F4B6
:100AA00080E044244394512C952D990F990F990F70
:100AB000D32CD91AD7FCD12C32E0882319F098E82E
:100AC0009B8333E021E09D2D977009F420E09D2D5C
:100AD000959595959595290FC9F094E0811193E02E
:100AE000291708F4922FE52DF0E03196E80DF91D55
:100AF000232F4191A1E0B0E0AC0FBD1FA20FB11DAB
:100B00004C932F5F422F431B491798F3882311F012
:100B1000F8E0DF0E8FE18D150CF081C090E79A832D
:100B20008B819C8189279D8189279E8189278F833D
:100B30009E01285F3F4F47E0BE016F5F7F4FC501B9
:100B40000E945303182F8111DFC01A86E3E0EB8760
:100B5000DC86CE0107963C0129E0222ECA844C2D6A
:100B60004295407F4C0D6AE1C5010E943603FE01AB
:100B70003A967F018E01055F1F4F9301422DBE0102
:100B80006F5F7F4FC5010E94D503182F823009F097
:100B900065C06CE1C5010E94180385FDB5C08F7169
:100BA00009F480E2282F30E04D2DDD0C550B421763
:100BB00053070CF09DC0D82EE82FE595E595E595F7
:100BC000EF5F982F977081E009F480E0E80F81E0F3
:100BD00090E08C0F9D1F8E0F911DFC01215031095B
:100BE0002770332781E090E002C0880F991F2A9573
:100BF000E2F79C018081822B80838CCF85E98983F9
:100C0000332031F081E0F4019081983008F04CCF2E
:100C100080E04ACF87E9898336E0532EF9CF9D2DB6
:100C200097709A878D2D8595859585958E5F282F50
:100C30002295207F290F2A8321E0911101C020E015
:100C4000222E280E66246394712C6C0E7D1E680E75
:100C5000711C99E0981B9B87DC8680CF811154C062
:100C600080E2D82E9C8590320CF458CF8B81883846
:100C700009F040C083E093E0E52DF0E03196E80D07
:100C8000F91D980FA1E0B0E0AC0FBD1FA80FB11D7A
:100C90002C9121938F5F8913F5CF5B84E3E05E1283
:100CA0004DC08A8581114AC09E012D5F3F4F41E0B2
:100CB000B301C5010E945303182F811125C09B81E8
:100CC000F301818198133CC09C818281981338C0C4
:100CD000808182FF12C04394F2E04F1609F48ECF58
:100CE00083E0481609F496CF91E0491609F4CFCE77
:100CF00015E00AC082E094E0BFCFF4018387842D21
:100D0000880F480E43944082812F2C960FB6F8949A
:100D1000DEBF0FBECDBFDF91CF911F910F91FF902E
:100D2000EF90DF90CF90BF90AF909F908F907F908B
:100D30006F905F904F903F902F90089511E0E4CF17
:100D400017E0E2CF1F920F920FB60F9211242F934C
:100D50003F938F939F93AF93BF938091EB019091BB
:100D6000EC01A091ED01B091EE013091E60123E09C
:100D7000230F2D3758F50196A11DB11D2093E601D3
:100D80008093EB019093EC01A093ED01B093EE0101
:100D90008091E7019091E801A091E901B091EA0109
:100DA0000196A11DB11D8093E7019093E801A093E6
:100DB000E901B093EA01BF91AF919F918F913F916B
:100DC0002F910F900FBE0F901F90189526E8230FBC
:100DD0000296A11DB11DD2CF1F920F920FB60F9296
:100DE00011242F933F934F935F936F937F938F9330
:100DF0009F93AF93BF93EF93FF938091DD01909109
:100E0000DE01A091DF01B091E001892B8A2B8B2BB1
:100E1000C1F19091DC01809100008927809300004E
:100E20008091DD019091DE01A091DF01B091E001A0
:100E3000181619061A061B069CF48091DD01909184
:100E4000DE01A091DF01B091E0010197A109B10994
:100E50008093DD019093DE01A093DF01B093E00168
:100E6000FF91EF91BF91AF919F918F917F916F9182
:100E70005F914F913F912F910F900FBE0F901F9058
:100E80001895809100010E949801EACF1F920F925D
:100E90000FB60F9211242F933F934F935F936F934D
:100EA0007F938F939F93AF93BF93EF93FF938FEEB7
:100EB00091E00E944202FF91EF91BF91AF919F910B
:100EC0008F917F916F915F914F913F912F910F90F3
:100ED0000FBE0F901F9018951F920F920FB60F9292
:100EE00011242F938F939F93EF93FF93E091FF0132
:100EF000F09100028081E0910502F091060282FDEE
:100F00001BC09081809108028F5F8F73209109022E
:100F1000821741F0E0910802F0E0E151FE4F958F19
:100F200080930802FF91EF919F918F912F910F90E5
:100F30000FBE0F901F9018958081F4CFEFEEF1E077
:100F40001382128288EE93E0A0E0B0E08483958360
:100F5000A683B7838DE091E09183808385EC90E058
:100F60009587848784EC90E09787868780EC90E073
:100F7000918B808B81EC90E0938B828B82EC90E064
:100F8000958B848B86EC90E0978B868B118E128EDE
:100F9000138E148EECE8F2E08FE191E09183808370
:100FA0008AE0868789E087870895CF93DF93CDB75E
:100FB000DEB7A1970FB6F894DEBF0FBECDBF789411
:100FC00084B5826084BD84B5816084BD85B582604E
:100FD00085BD85B5816085BD80916E0081608093FF
:100FE0006E00109281008091810082608093810068
:100FF0008091810081608093810080918000816078
:10100000809380008091B10084608093B1008091D2
:10101000B00081608093B00080917A0084608093FA
:101020007A0080917A00826080937A0080917A00C1
:10103000816080937A0080917A00806880937A0042
:101040001092C100E091FF01F091000282E08083E4
:10105000E091FB01F091FC011082E091FD01F09123
:10106000FE018FEC808310920702E0910302F09161
:10107000040286E08083E0910102F0910202808107
:1010800080618083E0910102F0910202808188609A
:101090008083E0910102F091020280818068808368
:1010A000E0910102F091020280818F7D808361E0F6
:1010B00083E00E94100161E084E00E94100161E081
:1010C00087E00E94100161E083E00E94E20061E09D
:1010D00084E00E94E20087E00E9498011FB7F89424
:1010E0008091E101811127C0E1E9F0E08491E5EA16
:1010F000F0E09491E82FF0E0EE0FFF1FE759FF4F6B
:10110000A591B491EC91E92321F461E08AE00E9479
:10111000E20061E08AE00E9410018CB580618CBD24
:101120008CB580648CBD61E08DE00E94100161E0AF
:101130008BE00E9410018091E1018F5F8093E101BB
:101140001FBF61E080919A020E94100161E08091CE
:101150009A020E94E20080919B028F3F09F4CAC06C
:1011600060E00E94100180919B020E94B900892BCF
:1011700009F0C0C061E080919B020E94100160E014
:1011800080919B020E94E20083E090E00197F1F7DA
:1011900061E080919B020E94E20062E370E080E0E7
:1011A00090E00E94660140E064E28CE892E00E94D8
:1011B000360340E066E28CE892E00E94360346E2A5
:1011C00068E48CE892E00E94360340E864E58CE82D
:1011D00092E00E94360349EA66E58CE892E00E94BC
:1011E000360343E068E58CE892E00E94360348EE5F
:1011F0006AE58CE892E00E94360340E46AE28CE8FB
:1012000092E00E9436034DE362E28CE892E00E9495
:10121000360368E28CE892E00E941803982F9370DE
:10122000933039F0482F436068E28CE892E00E94E6
:1012300036036EEE72E080E090E00E94660188E284
:1012400091E00E94BA0340E0A42E40E0B42E50E5A5
:10125000952E8CE892E00E94BD04882309F4A9C071
:101260008CE892E00E94D102882309F4A2C082E5B2
:1012700091E00E94BA032FE8C22E22E0D22E32EE75
:10128000E32E31E0F32E870120918E02C801825EA9
:1012900091402817190609F00CF445C0D6014D916C
:1012A0006D01F80141938F0150E070E060E019A2F8
:1012B000FE01B196DB01CA018F709927AA27BB27CF
:1012C00094E076956795579547959A95D1F78A302A
:1012D00044F5805D8293411551056105710551F713
:1012E000309719F0CF010E94BA0387E591E00E9480
:1012F000BA03CACF4FE062E08CE892E00E94360366
:1013000013E062E370E080E090E00E94660162E03A
:101310008CE892E00E94180384FF45CF115089F7B2
:1013200042CF895CD7CF85E291E00E94BA038091D9
:101330008E02A2EEB1E0E5E0F1E090E09F012550E1
:101340003140281739070CF059C031912D913217CF
:10135000A9F380918E02E1E0F1E090E09F0121503D
:101360003140281739070CF057C03191D7012D9122
:101370007D01321799F399821A829E012D5F3F4FAA
:1013800042E0BE016F5F7F4F8CE892E00E94530302
:1013900081110FC0C12CF12CE12C10E000E030E0F5
:1013A00020E044E0BE016F5F7F4F8CE892E00E9436
:1013B000D503A114B10409F44CCF0E942E02882356
:1013C00009F447CF0E94000044CF83E00E94B90097
:1013D000892B09F0BECF61E083E00E94E2008AE73A
:1013E00091E017C084E00E94B900892B21F661E0EA
:1013F00084E00E94E20086EB91E019C083E00E9445
:10140000B900019711F760E083E00E94E20089E5EE
:1014100091E00E94C7039DCF84E00E94B90001972C
:1014200009F760E084E00E94E2008EE891E00E940B
:10143000C703A1CFEE0FFF1F0590F491E02D099493
:04144000F894FFCF4E
:10144400FF0A3C90AFA53E92AC000000006402C4C9
:1014540001F101B102220200021402000000001D89
:1014640005BD04D1020D0A00506C656173652073DB
:1014740063616E20796F757220524649442043613E
:10148400726420617420746865207363616E6E6594
:1014940072000A5549443A2000416363657373201E
:1014A4004772616E7465643A20534D5053207377CC
:1014B400697463686564204F4E005B534D5053203C
:1014C4007377697463686564204F46465D004163C1
:1014D40063657373204772616E7465643A20436177
:1014E40062696E206C6967687420737769746368D5
:1014F4006564204F4E005B436162696E206C6967CE
:101504006874207377697463686564204F46465D28
:021514000000D5
:00000001FF
